:100000000C949A000C94C4000C94C4000C94C4008A
:100010000C94C4000C94C4000C94C4000C94C40050
:100020000C94C4000C94C4000C94C4000C94C40040
:100030000C94C4000C94C4000C94C4000C94C40030
:100040000C94C4000C94C4000C944A040C94C40096
:100050000C94BE040C9494040C94C4000C94C4003E
:100060000C94C4000C94C4000C94C4000C94C40000
:100070000C94C4000C94C4000C94C4000C94C400F0
:100080000C94C4000C94C4000C94C400EE00F10065
:10009000D000D400F400F400DA00DE00E400E80050
:1000A000DD05E205E705F1051F061F06FB05030652
:1000B0000B06150600002100240027002A0000007E
:1000C0002200250028002B0000002000230026002D
:1000D00029000202020202020202040404040404CF
:1000E00004040303030303030303010101010101EA
:1000F00001010102040810204080010204081020C0
:1001000040800102040810204080010204081020F1
:1001100040800000000203000A0B000000000504FC
:1001200009080000000000000000000000000000BE
:100130000000CC0811241FBECFEFD0E4DEBFCDBF3E
:1001400011E0A0E0B1E0E2E1F2E100E00BBF02C0AB
:1001500007900D92AC31B107D9F722E0ACE1B1E0E4
:1001600001C01D92A43EB207E1F710E0CAE9D0E059
:1001700004C02197FE010E94F908C939D107C9F7C7
:100180000E94F4040C9407090C94000090E0FC0118
:100190003297EA30F10540F5EA5BFF4F0C94F9081D
:1001A000809180008F7703C0809180008F7D809345
:1001B000800008958091B0008F7703C08091B000D7
:1001C0008F7D8093B0000895809190008F7703C059
:1001D000809190008F7D80939000089584B58F77F3
:1001E00002C084B58F7D84BD08951F93CF93DF93A4
:1001F000282F30E0F901EE5EFE4F8491F901EE50B8
:10020000FF4FD491F901EE52FF4FC491CC23C1F0BE
:10021000162F81110E94C600EC2FF0E0EE0FFF1F99
:10022000E254FF4FA591B4919FB7F894111104C007
:100230008C91D095D82302C0EC91DE2BDC939FBF2C
:10024000DF91CF911F910895CF93DF9390E0FC0150
:10025000EE50FF4F2491FC01EE52FF4F8491882312
:1002600061F190E0880F991FFC01EC54FF4FC5919C
:10027000D491FC01E254FF4FA591B491611109C0E2
:100280009FB7F8948881209582238883EC912E2350
:100290000BC0623061F49FB7F8948881322F30959B
:1002A00083238883EC912E2B2C939FBF06C08FB79E
:1002B000F894E8812E2B28838FBFDF91CF9108958A
:1002C0008230910538F0880F991F880F991F059784
:1002D0000197F1F708958F929F92AF92BF92CF92BC
:1002E000DF92EF92FF920F931F93CF93DF93C82F6C
:1002F00008E010E028E1E22E21E0F22E38EFC32ED4
:1003000030E0D32E48EDA42E40E0B42E6C2F661FB3
:100310006627661F85E00E94F50061E087E00E9485
:10032000F50080914302909144020E946001D0E068
:10033000CC0FDD1FF7018491F6019490F5018490B4
:10034000882079F081110E94C600E82DF0E0EE0FC0
:10035000FF1FE853FF4FA591B4918C91982281E043
:1003600009F480E0C82B60E087E00E94F5008091EE
:100370004302909144020E9460010150110909F06A
:10038000C5CF8C2FDF91CF911F910F91FF90EF90F0
:10039000DF90CF90BF90AF909F908F9008953FB720
:1003A000F89480913F0290914002A0914102B09157
:1003B000420226B5A89B05C02F3F19F00196A11D4A
:1003C000B11D3FBFBA2FA92F982F8827820F911DEB
:1003D000A11DB11DBC01CD0142E0660F771F881F32
:1003E000991F4A95D1F708958F929F92AF92BF922D
:1003F000CF92DF92EF92FF926B017C010E94CF01BE
:100400004B015C01C114D104E104F104F1F00E943C
:10041000CF01DC01CB0188199909AA09BB09883EE3
:100420009340A105B10570F321E0C21AD108E1089B
:10043000F10888EE880E83E0981EA11CB11CC1143F
:10044000D104E104F10419F7DDCFFF90EF90DF90C4
:10045000CF90BF90AF909F908F9008951F93CF93B0
:10046000DF93182FC3E0D0E061E0812F0E94F500F8
:100470006EE170E080E090E00E94F40160E0812F86
:100480000E94F5006EE170E080E090E00E94F401CF
:10049000219751F7DF91CF911F910895CF92DF926D
:1004A000EF92FF920F931F93CF93DF936C017A012A
:1004B0008B01C0E0D0E0CE15DF0581F0D8016D9151
:1004C0008D01D601ED91FC910190F081E02DC601E6
:1004D0000995892B11F02196EECF7E01C701DF919E
:1004E000CF911F910F91FF90EF90DF90CF900895E3
:1004F000089580E090E00895FC01538D448D252FF0
:1005000030E0842F90E0821B930B541710F0CF96AD
:10051000089501970895FC01918D828D981761F0DF
:10052000828DDF01A80FB11D5D968C91928D9F5F2A
:100530009F73928F90E008958FEF9FEF0895FC01D5
:10054000918D828D981731F0828DE80FF11D858D88
:1005500090E008958FEF9FEF0895FC01918D228D1B
:10056000892F90E0805C9F4F821B91098F739927A0
:10057000089587E492E00E94AD0221E0892B09F4FE
:1005800020E0822F0895FC01848DDF01A80FB11DAA
:10059000A35ABF4F2C91848D90E001968F739927B9
:1005A000848FA689B7892C93A089B1898C918064A6
:1005B0008C93938D848D981306C00288F389E02D67
:1005C00080818F7D80830895EF92FF920F931F9318
:1005D000CF93DF93EC0181E0888F9B8D8C8D9813F6
:1005E00005C0E889F989808185FD24C0F62E0B8D30
:1005F00010E00F5F1F4F0F731127E02E8C8DE81254
:100600000CC00FB607FCFACFE889F989808185FF15
:10061000F5CFCE010E94C302F1CF8B8DFE01E80F12
:10062000F11DE35AFF4FF0820B8FEA89FB8980812D
:10063000806207C0EE89FF896083E889F98980813B
:100640008064808381E090E0DF91CF911F910F91D2
:10065000FF90EF900895682F87E492E00C94E402F5
:10066000CF93DF93EC01888D8823C9F0EA89FB8959
:10067000808185FD05C0A889B9898C9186FD0FC050
:100680000FB607FCF5CF808185FFF2CFA889B98925
:100690008C9185FFEDCFCE010E94C302E7CFDF91A1
:1006A000CF91089580E090E0892B21F00E94B9025B
:1006B00081110DC080E090E0892B71F080E090E026
:1006C000892B51F00E940000811104C008950E94FE
:1006D0000000F0CF0C9400000895809136029091B4
:1006E00037020196909337028093360285E10C948D
:1006F0002B0320912B0130912C0180913402909199
:1007000035022032310511F4807F089520343105FF
:1007100011F4807E08952038310511F4807C08950D
:100720002115314009F4807808951F93CF93DF930A
:10073000162FD42FC22F0E946B01812F0E946B01B4
:100740008D2F0E946B018C2FDF91CF911F910C9404
:100750006B01CF93DF93D82FC92F60E084E10E9413
:10076000F50020E04D2F6C2F8CE40E9495036EE184
:1007700070E080E090E00E94F40161E084E1DF91AC
:10078000CF910C94F50087E492E00E94AD02892B92
:10079000D1F387E492E00E948B020895CF93C82F93
:1007A0000E94C303803241F484E10E942B038C2F0A
:1007B0000E942B0380E10AC080913602909137029B
:1007C0000196909337028093360285E1CF910C9485
:1007D0002B030E94C303803229F484E10E942B037F
:1007E00080E10AC080913602909137020196909381
:1007F00037028093360285E10C942B030F931F93ED
:10080000CF93DF938C01C3E3D1E0CE0183539140BA
:100810008017910724F40E94C3038993F6CFDF91D8
:10082000CF911F910F910895EF92FF920F931F9315
:10083000CF93DF93EC018B01CB010E94FE0360E0BC
:1008400084E10E94F50083E3E82E81E0F82E0C0F8E
:100850001D1FC017D10781F0F70121917F014C2F97
:100860006D2F80EC0E9495036DE270E080E090E0D7
:100870000E94F4012196EDCF61E084E10E94F50031
:1008800080E1DF91CF911F910F91FF90EF9008953C
:100890000E9402091F920F920FB60F9211242F93FC
:1008A0003F938F939F93AF93BF9380913B0290911F
:1008B0003C02A0913D02B0913E0230913A0223E009
:1008C000230F2D3720F40196A11DB11D05C026E888
:1008D000230F0296A11DB11D20933A0280933B0283
:1008E00090933C02A0933D02B0933E0280913F0260
:1008F00090914002A0914102B09142020196A11D47
:10090000B11D80933F0290934002A0934102B093A7
:100910004202BF91AF919F918F913F912F910F9084
:100920000FBE0F901F9018951F920F920FB60F9247
:1009300011240BB60F922F933F934F935F936F93B6
:100940007F938F939F93AF93BF93EF93FF9387E42E
:1009500092E00E94C302FF91EF91BF91AF919F91EE
:100960008F917F916F915F914F913F912F910F9058
:100970000BBE0F900FBE0F901F9018951F920F92F5
:100980000FB60F9211240BB60F922F938F939F9354
:10099000EF93FF93E0915702F09158028081E0912C
:1009A0005D02F0915E0282FD12C090818091600232
:1009B0008F5F8F7320916102821751F0E091600286
:1009C000F0E0E95BFD4F958F8093600201C080816C
:1009D000FF91EF919F918F912F910F900BBE0F90F0
:1009E0000FBE0F901F901895789484B5836084BDD6
:1009F00085B5836085BD80916E00816080936E00B7
:100A000092E09093810080918100816080938100C9
:100A1000809180008160809380008091B10084602B
:100A20008093B1008091B00081608093B00080918C
:100A30009100836080939100809190008160809309
:100A4000900087E880937A001092C100E0915702ED
:100A5000F09158029083E0915302F0915402108279
:100A6000E0915502F091560287E6808310925F0272
:100A7000E0915B02F0915C0286E08083E091590294
:100A8000F0915A02808188698083E0915902F09147
:100A90005A0280818F7D808361E084E10E9424017D
:100AA00084E190E00E942E0261E083E10E94240133
:100AB00083E190E00E942E0261E082E10E94240125
:100AC00082E190E00E942E0214E2412E11E0512EAC
:100AD00004E0802E912CA12CB12C66246394712CFF
:100AE0008091380290913902892B11F061E001C0A8
:100AF00060E084E10E94F500809136029091370217
:100B0000892B11F061E001C060E083E10E94F500F3
:100B10002FB7F89480913B0290913C02A0913D0246
:100B2000B0913E022FBF40911C0150911D01609178
:100B30001E0170911F018C019D01041B150B260BDA
:100B4000370B083211052105310508F47DC080936B
:100B50001C0190931D01A0931E01B0931F01909161
:100B6000010180EE890F813A28F080910001819582
:100B700080930001C0910001C90FC09301010C2FA7
:100B800010E061E082E10E942401C11102C060E036
:100B900003C0CF3F29F461E082E10E94F50054C018
:100BA000F201849190E0FC013297EA30F10508F0FF
:100BB00046C0E05BFF4F0C94F90884B5806884BDA3
:100BC000C7BD42C084B5806284BDC8BD3DC08091B0
:100BD00080008068809380001093890000938800D3
:100BE00033C08091800080628093800010938B00DE
:100BF00000938A0029C08091B00080688093B00083
:100C0000C093B30021C08091B00080628093B00097
:100C1000C093B40019C080919000806880939000C8
:100C200010939900009398000FC08091900080620B
:100C30008093900010939B0000939A0005C00038A9
:100C400011050CF0A8CFA3CF87E492E00E94AD027B
:100C5000892B09F49EC20E94C303813509F43EC268
:100C6000B0F4813409F44FC040F48033B1F18133E2
:100C7000C9F1803209F07BC270C2853409F4DBC04F
:100C8000803509F4DDC0823409F071C251C081366B
:100C900009F42DC1C0F4863509F40FC2803609F479
:100CA00024C1853509F063C20E94C303C82F0E9486
:100CB000C30390E0982F88278C0F911D90933502E5
:100CC0008093340226C2843709F49EC1853709F423
:100CD00023C2843609F04BC20DC110923702109224
:100CE000360217C20E94C303803209F036C284E183
:100CF0000E942B0347E050E064E171E087E492E05A
:100D00000E944E0228C20E94C303813859F020F489
:100D1000803861F482E0DFC1823831F0833931F408
:100D200083E5D9C181E0D7C182E1D5C180E0D3C1DB
:100D300084E190E00E94FE03209133012093200182
:100D400080913401809321018091350180932201AB
:100D50008091360180932301809137018093240193
:100D6000809138018093250180913901809326017B
:100D700080913A018093270180913B018093280163
:100D800080913D0190E0982F882730913E01830F9C
:100D9000911D90932A018093290180913F0190E059
:100DA000982F882730914001830F911D90932C013B
:100DB00080932B018091410190E0982F88273091FA
:100DC0004201830F911D90932E0180932D018091FC
:100DD000430190E0A0E0B0E0BA2FA92F982F882718
:100DE00030914401830F911DA11DB11DDC01992794
:100DF00088274091450150E0542F4427052E000CD0
:100E0000660B770B840F951FA61FB71F3091460105
:100E1000830F911DA11DB11D80932F01909330016F
:100E2000A0933101B093320181E0203E08F480E0CC
:100E3000809333026EC185E090E00E94FE0369C199
:100E40008091380290913902892B09F062C1C091DA
:100E500033026C2F8BE10E94F50061E08BE10E9470
:100E6000240160E087E00E94F50060E085E00E94D8
:100E7000F50061E087E00E94240161E085E00E94C6
:100E8000240160E086E00E94240180924302909257
:100E90004402A0924502B092460260E087E00E94C0
:100EA000F50064E170E080E090E00E94F40161E010
:100EB0006C278BE10E94F50084E690E00E946001BF
:100EC0006C2F8BE10E94F50062E370E080E090E01F
:100ED0000E94F40120E040E063E58CEA0E94950363
:100EE000709239026092380214C10E94C3030E94BA
:100EF000C3030FC10E94C303C82F0E94C303D0E0E5
:100F0000DC2FCC27C80FD11D0E94C303863409F003
:100F100043C0CE010E94FE030E94C303803209F049
:100F20001CC184E10E942B030E9479036C0133E30E
:100F3000E32E31E0F32EC701835391408C179D07B8
:100F40003CF50E9479038C159D0531F0C6010E9485
:100F5000A9030E9479036C010091340210913502BB
:100F6000F7012081402F612F80E40E949503F70153
:100F70002181402F612F88E40E9495030F5F1F4F4E
:100F80001093350200933402F2E0EF0EF11CD3CF40
:100F9000C6010E94A903DFC0853409F08CC080918E
:100FA0002D0190912E018C179D0758F480913602E7
:100FB0009091370201969093370280933602C1E1F7
:100FC00017C00091340210913502000F111FC13279
:100FD000D10548F060E270E0C8010E941404005E90
:100FE0001F4FA097F4CFBE01C8010E941404C0E1B6
:100FF0000E94C303803229F484E10E942B038C2FCA
:10100000C6C00E946D03C5C00E94C303C82F0E94C2
:10101000C303082F0E94C303182F0E94C30380320A
:1010200019F00E946D03B5C0D0E0DC2FCC27C00FB3
:10103000D11D84E10E942B03163421F5E12CF12C03
:10104000EC16FD060CF087C00091340210913502B9
:1010500020E0402F612F80E20E9495030E942B0325
:1010600020E0402F612F88E20E9495030E942B030D
:101070000F5F1F4F109335020093340202E0E00E21
:10108000F11CDECF1534B9F4009134021091350211
:10109000000F111FC00FD11FC017D10709F45BC08B
:1010A0002FEF402F612F80EA0E9495030E942B03AF
:1010B0000F5F1F4FF1CF81E16AC084E090E00E9492
:1010C000FE032091360140913501609134018091F9
:1010D00033010E9495030E94CE035BC01092370239
:1010E0001092360260E085E00E94240160E087E013
:1010F0000E9424016091330281E068278BE10E9405
:10110000F50060E08BE10E942401109239021092F8
:1011100038020E94E9033DC00E94C3038032E9F413
:1011200084E10E942B0320E040E060E080E30E9425
:1011300095030E942B0320E041E060E080E30E94E1
:1011400095030E942B0320E042E060E080E30E94D0
:1011500095030E942B0380E11AC080913602909182
:101160003702019690933702809336020FC0809128
:10117000360290913702019690933702809336029F
:101180000E94C303803211F482E101C085E10E9414
:101190002B030E945203A4CCE7E4F2E013821282F4
:1011A00088EE93E0A0E0B0E084839583A683B783C4
:1011B00086E091E09183808385EC90E09587848739
:1011C00084EC90E09787868780EC90E0918B808B11
:1011D00081EC90E0938B828B82EC90E0958B848BFA
:1011E00086EC90E0978B868B118E128E138E148E68
:1011F0000895EE0FFF1F0024001C0BBE0790F69110
:10120000E02D099481E090E0F8940C940709F8949B
:02121000FFCF0E
:10121200088000000000E4024E027C023003AD02AE
:0C1222008B029F0241565220495350009D
:00000001FF
