:100000000C948A000C949C000C949C000C949C0012
:100010000C949C000C949C000C949C000C949C00F0
:100020000C949C000C949C000C949C000C949C00E0
:100030000C949C000C949C000C949C000C949C00D0
:100040000C949C000C949C000C944C010C949C000F
:100050000C949C000C949C000C949C000C949C00B0
:100060000C949C000C949C000C949C000C949C00A0
:100070000C949C000C949C000C949C000C949C0090
:100080000C949C000C949C000C949C00D400D70011
:10009000B600BA00DA00DA00C000C400CA00CE0020
:1000A00000002100240027002A0000002200250073
:1000B00028002B00020202020202020204040404CD
:1000C0000404040403030303030303030101010104
:1000D000010101010102040810204080010204080E
:1000E0001020408001020408102040800102040812
:1000F000102040800000000203000A0B00000000F6
:1001000005040908000000000000000000000000D5
:100110000000000011241FBECFEFD0E4DEBFCDBF32
:1001200021E0A0E0B1E001C01D92A930B207E1F7E3
:100130000E9496010C94FD010C940000EFE0F1E0A8
:100140004491EFEEF0E09491EFECF0E02491222363
:1001500009F444C0442371F150E0FA013297EA30C7
:10016000F10540F5EA5BFF4F0C94F40130918000FB
:100170003F7703C0309180003F7D309380001AC0EC
:100180003091B0003F7703C03091B0003F7D309395
:10019000B00010C0309190003F7703C030919000C4
:1001A0003F7D3093900006C034B53F7702C034B530
:1001B0003F7D34BDE22FF0E0EE0FFF1FE655FF4F0D
:1001C000A591B4912FB7F894811104C08C919095AA
:1001D000982302C0EC919E2B9C932FBF08953FB7AC
:1001E000F8948091050190910601A0910701B091CA
:1001F000080126B5A89B05C02F3F19F00196A11D47
:10020000B11D3FBFBA2FA92F982F8827820F911DAC
:10021000A11DB11DBC01CD0142E0660F771F881FF3
:10022000991F4A95D1F708958F929F92AF92BF92EE
:10023000CF92DF92EF92FF920E94EF004B015C01A0
:1002400088EEC82E83E0D82EE12CF12C0E94EF001E
:10025000DC01CB0188199909AA09BB09883E9340A2
:10026000A105B10598F321E0C21AD108E108F1080F
:1002700088EE880E83E0981EA11CB11CC114D10425
:10028000E104F10419F7FF90EF90DF90CF90BF9059
:10029000AF909F908F9008951F920F920FB60F927C
:1002A00011242F933F938F939F93AF93BF9380918C
:1002B000010190910201A0910301B09104013091DC
:1002C000000123E0230F2D3720F40196A11DB11D5D
:1002D00005C026E8230F0296A11DB11D2093000141
:1002E0008093010190930201A0930301B093040154
:1002F0008091050190910601A0910701B09108013C
:100300000196A11DB11D8093050190930601A09354
:100310000701B0930801BF91AF919F918F913F91D9
:100320002F910F900FBE0F901F901895789484B561
:10033000836084BD85B5836085BD80916E008160DA
:1003400080936E0082E080938100809181008160C3
:1003500080938100809180008160809380008091F3
:10036000B10084608093B1008091B000816080937F
:10037000B000809191008360809391008091900003
:1003800081608093900087E880937A001092C1008A
:10039000EFEEF0E02491EFECF0E08491882399F007
:1003A00090E0880F991FFC01E056FF4FA591B49192
:1003B000FC01E655FF4F859194918FB7F894EC912D
:1003C000E22BEC938FBFC0E0D0E081E00E949E0062
:1003D0000E94140180E00E949E000E941401209758
:1003E000A1F30E940000F1CFEE0FFF1F0024001CBC
:0E03F0000BBE0790F691E02D0994F894FFCF14
:00000001FF
